{
  "contractName": "SkillToken",
  "abi": [
    {
      "inputs": [],
      "stateMutability": "payable",
      "type": "constructor",
      "payable": true
    },
    {
      "anonymous": false,
      "inputs": [
        {
          "indexed": true,
          "internalType": "address",
          "name": "owner",
          "type": "address"
        },
        {
          "indexed": true,
          "internalType": "address",
          "name": "spender",
          "type": "address"
        },
        {
          "indexed": false,
          "internalType": "uint256",
          "name": "value",
          "type": "uint256"
        }
      ],
      "name": "Approval",
      "type": "event"
    },
    {
      "anonymous": false,
      "inputs": [
        {
          "indexed": true,
          "internalType": "address",
          "name": "from",
          "type": "address"
        },
        {
          "indexed": true,
          "internalType": "address",
          "name": "to",
          "type": "address"
        },
        {
          "indexed": false,
          "internalType": "uint256",
          "name": "value",
          "type": "uint256"
        }
      ],
      "name": "Transfer",
      "type": "event"
    },
    {
      "inputs": [
        {
          "internalType": "address",
          "name": "",
          "type": "address"
        },
        {
          "internalType": "address",
          "name": "",
          "type": "address"
        }
      ],
      "name": "allowance",
      "outputs": [
        {
          "internalType": "uint256",
          "name": "",
          "type": "uint256"
        }
      ],
      "stateMutability": "view",
      "type": "function",
      "constant": true
    },
    {
      "inputs": [
        {
          "internalType": "address",
          "name": "spender",
          "type": "address"
        },
        {
          "internalType": "uint256",
          "name": "amount",
          "type": "uint256"
        }
      ],
      "name": "approve",
      "outputs": [
        {
          "internalType": "bool",
          "name": "",
          "type": "bool"
        }
      ],
      "stateMutability": "nonpayable",
      "type": "function"
    },
    {
      "inputs": [
        {
          "internalType": "address",
          "name": "",
          "type": "address"
        }
      ],
      "name": "balanceOf",
      "outputs": [
        {
          "internalType": "uint256",
          "name": "",
          "type": "uint256"
        }
      ],
      "stateMutability": "view",
      "type": "function",
      "constant": true
    },
    {
      "inputs": [],
      "name": "decimals",
      "outputs": [
        {
          "internalType": "uint8",
          "name": "",
          "type": "uint8"
        }
      ],
      "stateMutability": "view",
      "type": "function",
      "constant": true
    },
    {
      "inputs": [],
      "name": "name",
      "outputs": [
        {
          "internalType": "string",
          "name": "",
          "type": "string"
        }
      ],
      "stateMutability": "view",
      "type": "function",
      "constant": true
    },
    {
      "inputs": [],
      "name": "symbol",
      "outputs": [
        {
          "internalType": "string",
          "name": "",
          "type": "string"
        }
      ],
      "stateMutability": "view",
      "type": "function",
      "constant": true
    },
    {
      "inputs": [],
      "name": "totalSupply",
      "outputs": [
        {
          "internalType": "uint256",
          "name": "",
          "type": "uint256"
        }
      ],
      "stateMutability": "view",
      "type": "function",
      "constant": true
    },
    {
      "inputs": [
        {
          "internalType": "address",
          "name": "recipient",
          "type": "address"
        },
        {
          "internalType": "uint256",
          "name": "amount",
          "type": "uint256"
        }
      ],
      "name": "transfer",
      "outputs": [
        {
          "internalType": "bool",
          "name": "",
          "type": "bool"
        }
      ],
      "stateMutability": "nonpayable",
      "type": "function"
    },
    {
      "inputs": [
        {
          "internalType": "address",
          "name": "sender",
          "type": "address"
        },
        {
          "internalType": "address",
          "name": "recipient",
          "type": "address"
        },
        {
          "internalType": "uint256",
          "name": "amount",
          "type": "uint256"
        }
      ],
      "name": "transferFrom",
      "outputs": [
        {
          "internalType": "bool",
          "name": "",
          "type": "bool"
        }
      ],
      "stateMutability": "nonpayable",
      "type": "function"
    },
    {
      "inputs": [
        {
          "internalType": "address",
          "name": "user",
          "type": "address"
        },
        {
          "internalType": "uint256",
          "name": "amount",
          "type": "uint256"
        }
      ],
      "name": "deductFromUser",
      "outputs": [],
      "stateMutability": "nonpayable",
      "type": "function"
    },
    {
      "inputs": [
        {
          "internalType": "address",
          "name": "user",
          "type": "address"
        },
        {
          "internalType": "uint256",
          "name": "amount",
          "type": "uint256"
        }
      ],
      "name": "rewardUser",
      "outputs": [],
      "stateMutability": "nonpayable",
      "type": "function"
    },
    {
      "inputs": [],
      "name": "getMyPoints",
      "outputs": [
        {
          "internalType": "uint256",
          "name": "",
          "type": "uint256"
        }
      ],
      "stateMutability": "view",
      "type": "function",
      "constant": true
    }
  ],
  "bytecode": "0x60806040526040518060400160405280600b81526020017f536b696c6c20546f6b656e0000000000000000000000000000000000000000008152506040518060400160405280600581526020017f534b494c4c0000000000000000000000000000000000000000000000000000008152506000826000908162000083919062000428565b50816001908162000095919062000428565b5080600260006101000a81548160ff021916908360ff160217905550505050620000c930620f4240620000cf60201b60201c565b620005a7565b8060036000828254620000e391906200053e565b9250508190555080600460008473ffffffffffffffffffffffffffffffffffffffff1673ffffffffffffffffffffffffffffffffffffffff16815260200190815260200160002060008282546200013b91906200053e565b925050819055508173ffffffffffffffffffffffffffffffffffffffff16600073ffffffffffffffffffffffffffffffffffffffff167fddf252ad1be2c89b69c2b068fc378daa952ba7f163c4a11628f55a4df523b3ef83604051620001a291906200058a565b60405180910390a35050565b600081519050919050565b7f4e487b7100000000000000000000000000000000000000000000000000000000600052604160045260246000fd5b7f4e487b7100000000000000000000000000000000000000000000000000000000600052602260045260246000fd5b600060028204905060018216806200023057607f821691505b602082108103620002465762000245620001e8565b5b50919050565b60008190508160005260206000209050919050565b60006020601f8301049050919050565b600082821b905092915050565b600060088302620002b07fffffffffffffffffffffffffffffffffffffffffffffffffffffffffffffffff8262000271565b620002bc868362000271565b95508019841693508086168417925050509392505050565b6000819050919050565b6000819050919050565b60006200030962000303620002fd84620002d4565b620002de565b620002d4565b9050919050565b6000819050919050565b6200032583620002e8565b6200033d620003348262000310565b8484546200027e565b825550505050565b600090565b6200035462000345565b620003618184846200031a565b505050565b5b8181101562000389576200037d6000826200034a565b60018101905062000367565b5050565b601f821115620003d857620003a2816200024c565b620003ad8462000261565b81016020851015620003bd578190505b620003d5620003cc8562000261565b83018262000366565b50505b505050565b600082821c905092915050565b6000620003fd60001984600802620003dd565b1980831691505092915050565b6000620004188383620003ea565b9150826002028217905092915050565b6200043382620001ae565b67ffffffffffffffff8111156200044f576200044e620001b9565b5b6200045b825462000217565b620004688282856200038d565b600060209050601f831160018114620004a057600084156200048b578287015190505b6200049785826200040a565b86555062000507565b601f198416620004b0866200024c565b60005b82811015620004da57848901518255600182019150602085019450602081019050620004b3565b86831015620004fa5784890151620004f6601f891682620003ea565b8355505b6001600288020188555050505b505050505050565b7f4e487b7100000000000000000000000000000000000000000000000000000000600052601160045260246000fd5b60006200054b82620002d4565b91506200055883620002d4565b92508282019050808211156200057357620005726200050f565b5b92915050565b6200058481620002d4565b82525050565b6000602082019050620005a1600083018462000579565b92915050565b6112a080620005b76000396000f3fe608060405234801561001057600080fd5b50600436106100b45760003560e01c80638f1b4667116100715780638f1b4667146101a357806395d89b41146101bf578063a9059cbb146101dd578063ba9c46371461020d578063dd62ed3e1461022b578063e4e103dc1461025b576100b4565b806306fdde03146100b9578063095ea7b3146100d757806318160ddd1461010757806323b872dd14610125578063313ce5671461015557806370a0823114610173575b600080fd5b6100c1610277565b6040516100ce9190610d71565b60405180910390f35b6100f160048036038101906100ec9190610e2c565b610305565b6040516100fe9190610e87565b60405180910390f35b61010f6103f7565b60405161011c9190610eb1565b60405180910390f35b61013f600480360381019061013a9190610ecc565b6103fd565b60405161014c9190610e87565b60405180910390f35b61015d6106ef565b60405161016a9190610f3b565b60405180910390f35b61018d60048036038101906101889190610f56565b610702565b60405161019a9190610eb1565b60405180910390f35b6101bd60048036038101906101b89190610e2c565b61071a565b005b6101c76108b1565b6040516101d49190610d71565b60405180910390f35b6101f760048036038101906101f29190610e2c565b61093f565b6040516102049190610e87565b60405180910390f35b610215610ade565b6040516102229190610eb1565b60405180910390f35b61024560048036038101906102409190610f83565b610b25565b6040516102529190610eb1565b60405180910390f35b61027560048036038101906102709190610e2c565b610b4a565b005b6000805461028490610ff2565b80601f01602080910402602001604051908101604052809291908181526020018280546102b090610ff2565b80156102fd5780601f106102d2576101008083540402835291602001916102fd565b820191906000526020600020905b8154815290600101906020018083116102e057829003601f168201915b505050505081565b600081600560003373ffffffffffffffffffffffffffffffffffffffff1673ffffffffffffffffffffffffffffffffffffffff16815260200190815260200160002060008573ffffffffffffffffffffffffffffffffffffffff1673ffffffffffffffffffffffffffffffffffffffff168152602001908152602001600020819055508273ffffffffffffffffffffffffffffffffffffffff163373ffffffffffffffffffffffffffffffffffffffff167f8c5be1e5ebec7d5bd14f71427d1e84f3dd0314c0f7b2291e5b200ac8c7c3b925846040516103e59190610eb1565b60405180910390a36001905092915050565b60035481565b600081600560008673ffffffffffffffffffffffffffffffffffffffff1673ffffffffffffffffffffffffffffffffffffffff16815260200190815260200160002060003373ffffffffffffffffffffffffffffffffffffffff1673ffffffffffffffffffffffffffffffffffffffff1681526020019081526020016000205410156104be576040517f08c379a00000000000000000000000000000000000000000000000000000000081526004016104b59061106f565b60405180910390fd5b81600460008673ffffffffffffffffffffffffffffffffffffffff1673ffffffffffffffffffffffffffffffffffffffff168152602001908152602001600020541015610540576040517f08c379a0000000000000000000000000000000000000000000000000000000008152600401610537906110db565b60405180910390fd5b81600560008673ffffffffffffffffffffffffffffffffffffffff1673ffffffffffffffffffffffffffffffffffffffff16815260200190815260200160002060003373ffffffffffffffffffffffffffffffffffffffff1673ffffffffffffffffffffffffffffffffffffffff16815260200190815260200160002060008282546105cc919061112a565b9250508190555081600460008673ffffffffffffffffffffffffffffffffffffffff1673ffffffffffffffffffffffffffffffffffffffff1681526020019081526020016000206000828254610622919061112a565b9250508190555081600460008573ffffffffffffffffffffffffffffffffffffffff1673ffffffffffffffffffffffffffffffffffffffff1681526020019081526020016000206000828254610678919061115e565b925050819055508273ffffffffffffffffffffffffffffffffffffffff168473ffffffffffffffffffffffffffffffffffffffff167fddf252ad1be2c89b69c2b068fc378daa952ba7f163c4a11628f55a4df523b3ef846040516106dc9190610eb1565b60405180910390a3600190509392505050565b600260009054906101000a900460ff1681565b60046020528060005260406000206000915090505481565b80600460008473ffffffffffffffffffffffffffffffffffffffff1673ffffffffffffffffffffffffffffffffffffffff16815260200190815260200160002054101561079c576040517f08c379a0000000000000000000000000000000000000000000000000000000008152600401610793906111de565b60405180910390fd5b80600460008473ffffffffffffffffffffffffffffffffffffffff1673ffffffffffffffffffffffffffffffffffffffff16815260200190815260200160002060008282546107eb919061112a565b9250508190555080600460003073ffffffffffffffffffffffffffffffffffffffff1673ffffffffffffffffffffffffffffffffffffffff1681526020019081526020016000206000828254610841919061115e565b925050819055503073ffffffffffffffffffffffffffffffffffffffff168273ffffffffffffffffffffffffffffffffffffffff167fddf252ad1be2c89b69c2b068fc378daa952ba7f163c4a11628f55a4df523b3ef836040516108a59190610eb1565b60405180910390a35050565b600180546108be90610ff2565b80601f01602080910402602001604051908101604052809291908181526020018280546108ea90610ff2565b80156109375780601f1061090c57610100808354040283529160200191610937565b820191906000526020600020905b81548152906001019060200180831161091a57829003601f168201915b505050505081565b600081600460003373ffffffffffffffffffffffffffffffffffffffff1673ffffffffffffffffffffffffffffffffffffffff1681526020019081526020016000205410156109c3576040517f08c379a00000000000000000000000000000000000000000000000000000000081526004016109ba906110db565b60405180910390fd5b81600460003373ffffffffffffffffffffffffffffffffffffffff1673ffffffffffffffffffffffffffffffffffffffff1681526020019081526020016000206000828254610a12919061112a565b9250508190555081600460008573ffffffffffffffffffffffffffffffffffffffff1673ffffffffffffffffffffffffffffffffffffffff1681526020019081526020016000206000828254610a68919061115e565b925050819055508273ffffffffffffffffffffffffffffffffffffffff163373ffffffffffffffffffffffffffffffffffffffff167fddf252ad1be2c89b69c2b068fc378daa952ba7f163c4a11628f55a4df523b3ef84604051610acc9190610eb1565b60405180910390a36001905092915050565b6000600460003373ffffffffffffffffffffffffffffffffffffffff1673ffffffffffffffffffffffffffffffffffffffff16815260200190815260200160002054905090565b6005602052816000526040600020602052806000526040600020600091509150505481565b80600460003073ffffffffffffffffffffffffffffffffffffffff1673ffffffffffffffffffffffffffffffffffffffff168152602001908152602001600020541015610bcc576040517f08c379a0000000000000000000000000000000000000000000000000000000008152600401610bc39061124a565b60405180910390fd5b80600460003073ffffffffffffffffffffffffffffffffffffffff1673ffffffffffffffffffffffffffffffffffffffff1681526020019081526020016000206000828254610c1b919061112a565b9250508190555080600460008473ffffffffffffffffffffffffffffffffffffffff1673ffffffffffffffffffffffffffffffffffffffff1681526020019081526020016000206000828254610c71919061115e565b925050819055508173ffffffffffffffffffffffffffffffffffffffff163073ffffffffffffffffffffffffffffffffffffffff167fddf252ad1be2c89b69c2b068fc378daa952ba7f163c4a11628f55a4df523b3ef83604051610cd59190610eb1565b60405180910390a35050565b600081519050919050565b600082825260208201905092915050565b60005b83811015610d1b578082015181840152602081019050610d00565b60008484015250505050565b6000601f19601f8301169050919050565b6000610d4382610ce1565b610d4d8185610cec565b9350610d5d818560208601610cfd565b610d6681610d27565b840191505092915050565b60006020820190508181036000830152610d8b8184610d38565b905092915050565b600080fd5b600073ffffffffffffffffffffffffffffffffffffffff82169050919050565b6000610dc382610d98565b9050919050565b610dd381610db8565b8114610dde57600080fd5b50565b600081359050610df081610dca565b92915050565b6000819050919050565b610e0981610df6565b8114610e1457600080fd5b50565b600081359050610e2681610e00565b92915050565b60008060408385031215610e4357610e42610d93565b5b6000610e5185828601610de1565b9250506020610e6285828601610e17565b9150509250929050565b60008115159050919050565b610e8181610e6c565b82525050565b6000602082019050610e9c6000830184610e78565b92915050565b610eab81610df6565b82525050565b6000602082019050610ec66000830184610ea2565b92915050565b600080600060608486031215610ee557610ee4610d93565b5b6000610ef386828701610de1565b9350506020610f0486828701610de1565b9250506040610f1586828701610e17565b9150509250925092565b600060ff82169050919050565b610f3581610f1f565b82525050565b6000602082019050610f506000830184610f2c565b92915050565b600060208284031215610f6c57610f6b610d93565b5b6000610f7a84828501610de1565b91505092915050565b60008060408385031215610f9a57610f99610d93565b5b6000610fa885828601610de1565b9250506020610fb985828601610de1565b9150509250929050565b7f4e487b7100000000000000000000000000000000000000000000000000000000600052602260045260246000fd5b6000600282049050600182168061100a57607f821691505b60208210810361101d5761101c610fc3565b5b50919050565b7f4e6f7420617070726f7665640000000000000000000000000000000000000000600082015250565b6000611059600c83610cec565b915061106482611023565b602082019050919050565b600060208201905081810360008301526110888161104c565b9050919050565b7f496e73756666696369656e742062616c616e6365000000000000000000000000600082015250565b60006110c5601483610cec565b91506110d08261108f565b602082019050919050565b600060208201905081810360008301526110f4816110b8565b9050919050565b7f4e487b7100000000000000000000000000000000000000000000000000000000600052601160045260246000fd5b600061113582610df6565b915061114083610df6565b9250828203905081811115611158576111576110fb565b5b92915050565b600061116982610df6565b915061117483610df6565b925082820190508082111561118c5761118b6110fb565b5b92915050565b7f496e73756666696369656e7420757365722062616c616e636500000000000000600082015250565b60006111c8601983610cec565b91506111d382611192565b602082019050919050565b600060208201905081810360008301526111f7816111bb565b9050919050565b7f496e73756666696369656e7420746f6b656e7320696e20636f6e747261637400600082015250565b6000611234601f83610cec565b915061123f826111fe565b602082019050919050565b6000602082019050818103600083015261126381611227565b905091905056fea2646970667358221220b0492127ed474ac35fc1021123713a0ed5ad28db7bb4e3db70fa87917aebaec464736f6c63430008130033",
  "immutableReferences": {},
  "source": "// SPDX-License-Identifier: MIT\r\npragma solidity ^0.8.19;\r\n\r\ninterface IERC20 {\r\n    function totalSupply() external view returns (uint256);\r\n    function balanceOf(address account) external view returns (uint256);\r\n    function transfer(address recipient, uint256 amount) external returns (bool);\r\n    function allowance(address owner, address spender) external view returns (uint256);\r\n    function approve(address spender, uint256 amount) external returns (bool);\r\n    function transferFrom(address sender, address recipient, uint256 amount) external returns (bool);\r\n}\r\n\r\ncontract ERC20 is IERC20 {\r\n    string public name;\r\n    string public symbol;\r\n    uint8 public decimals;\r\n    uint256 public override totalSupply;\r\n\r\n    mapping(address => uint256) public override balanceOf;\r\n    mapping(address => mapping(address => uint256)) public override allowance;\r\n\r\n    event Transfer(address indexed from, address indexed to, uint256 value);\r\n    event Approval(address indexed owner, address indexed spender, uint256 value);\r\n\r\n    constructor(string memory _name, string memory _symbol, uint8 _decimals) {\r\n        name = _name;\r\n        symbol = _symbol;\r\n        decimals = _decimals;\r\n    }\r\n\r\n    function transfer(address recipient, uint256 amount) public override returns (bool) {\r\n        require(balanceOf[msg.sender] >= amount, \"Insufficient balance\");\r\n        balanceOf[msg.sender] -= amount;\r\n        balanceOf[recipient] += amount;\r\n        emit Transfer(msg.sender, recipient, amount);\r\n        return true;\r\n    }\r\n\r\n    function approve(address spender, uint256 amount) public override returns (bool) {\r\n        allowance[msg.sender][spender] = amount;\r\n        emit Approval(msg.sender, spender, amount);\r\n        return true;\r\n    }\r\n\r\n    function transferFrom(address sender, address recipient, uint256 amount) public override returns (bool) {\r\n        require(allowance[sender][msg.sender] >= amount, \"Not approved\");\r\n        require(balanceOf[sender] >= amount, \"Insufficient balance\");\r\n        allowance[sender][msg.sender] -= amount;\r\n        balanceOf[sender] -= amount;\r\n        balanceOf[recipient] += amount;\r\n        emit Transfer(sender, recipient, amount);\r\n        return true;\r\n    }\r\n\r\n    function _mint(address to, uint256 amount) internal {\r\n        totalSupply += amount;\r\n        balanceOf[to] += amount;\r\n        emit Transfer(address(0), to, amount);\r\n    }\r\n\r\n    function _burn(address from, uint256 amount) internal {\r\n        require(balanceOf[from] >= amount, \"Insufficient balance to burn\");\r\n        balanceOf[from] -= amount;\r\n        totalSupply -= amount;\r\n        emit Transfer(from, address(0), amount);\r\n    }\r\n}\r\n\r\ncontract SkillToken is ERC20 {\r\n    uint constant _initial_supply = 1000000;\r\n    string constant _name = \"Skill Token\";\r\n    string constant _symbol = \"SKILL\";\r\n    uint8 constant _decimals = 0;\r\n\r\n    constructor() payable ERC20(_name, _symbol, _decimals) {\r\n        _mint(address(this), _initial_supply);\r\n    }\r\n\r\n    /// @notice       \r\n    function deductFromUser(address user, uint256 amount) external {\r\n        require(balanceOf[user] >= amount, \"Insufficient user balance\");\r\n\r\n        balanceOf[user] -= amount;\r\n        balanceOf[address(this)] += amount;\r\n\r\n        emit Transfer(user, address(this), amount);\r\n    }\r\n\r\n    /// @notice   \r\n    function rewardUser(address user, uint256 amount) external {\r\n        require(balanceOf[address(this)] >= amount, \"Insufficient tokens in contract\");\r\n\r\n        balanceOf[address(this)] -= amount;\r\n\r\n        balanceOf[user] += amount;\r\n\r\n        emit Transfer(address(this), user, amount);\r\n    }\r\n\r\n    /// @notice   \r\n    function getMyPoints() external view returns (uint256) {\r\n        return balanceOf[msg.sender];\r\n    }\r\n}\r\n",
  "sourcePath": "D:\\wb\\project\\blockchain\\contracts\\contracts\\SkillToken.sol",
  "compiler": {
    "name": "solc",
    "version": "0.8.19+commit.7dd6d404.Emscripten.clang"
  },
  "schemaVersion": "3.4.16",
  "updatedAt": "2025-06-15T12:43:58.738Z",
  "networkType": "ethereum",
  "devdoc": {
    "kind": "dev",
    "methods": {},
    "version": 1
  },
  "userdoc": {
    "kind": "user",
    "methods": {
      "deductFromUser(address,uint256)": {
        "notice": "      "
      },
      "getMyPoints()": {
        "notice": "  "
      },
      "rewardUser(address,uint256)": {
        "notice": "  "
      }
    },
    "version": 1
  }
}